{
  "_format": "hh-sol-artifact-1",
  "contractName": "GenerateNFT",
  "sourceName": "contracts/generate-nft.sol",
  "abi": [
    {
      "inputs": [],
      "stateMutability": "nonpayable",
      "type": "constructor"
    },
    {
      "anonymous": false,
      "inputs": [
        {
          "indexed": true,
          "internalType": "address",
          "name": "owner",
          "type": "address"
        },
        {
          "indexed": true,
          "internalType": "address",
          "name": "approved",
          "type": "address"
        },
        {
          "indexed": true,
          "internalType": "uint256",
          "name": "tokenId",
          "type": "uint256"
        }
      ],
      "name": "Approval",
      "type": "event"
    },
    {
      "anonymous": false,
      "inputs": [
        {
          "indexed": true,
          "internalType": "address",
          "name": "owner",
          "type": "address"
        },
        {
          "indexed": true,
          "internalType": "address",
          "name": "operator",
          "type": "address"
        },
        {
          "indexed": false,
          "internalType": "bool",
          "name": "approved",
          "type": "bool"
        }
      ],
      "name": "ApprovalForAll",
      "type": "event"
    },
    {
      "anonymous": false,
      "inputs": [
        {
          "indexed": false,
          "internalType": "address",
          "name": "sender",
          "type": "address"
        },
        {
          "indexed": false,
          "internalType": "uint256",
          "name": "tokenId",
          "type": "uint256"
        }
      ],
      "name": "NFTMinted",
      "type": "event"
    },
    {
      "anonymous": false,
      "inputs": [
        {
          "indexed": true,
          "internalType": "address",
          "name": "from",
          "type": "address"
        },
        {
          "indexed": true,
          "internalType": "address",
          "name": "to",
          "type": "address"
        },
        {
          "indexed": true,
          "internalType": "uint256",
          "name": "tokenId",
          "type": "uint256"
        }
      ],
      "name": "Transfer",
      "type": "event"
    },
    {
      "inputs": [
        {
          "internalType": "address",
          "name": "to",
          "type": "address"
        },
        {
          "internalType": "uint256",
          "name": "tokenId",
          "type": "uint256"
        }
      ],
      "name": "approve",
      "outputs": [],
      "stateMutability": "nonpayable",
      "type": "function"
    },
    {
      "inputs": [
        {
          "internalType": "address",
          "name": "owner",
          "type": "address"
        }
      ],
      "name": "balanceOf",
      "outputs": [
        {
          "internalType": "uint256",
          "name": "",
          "type": "uint256"
        }
      ],
      "stateMutability": "view",
      "type": "function"
    },
    {
      "inputs": [
        {
          "internalType": "string",
          "name": "sentence",
          "type": "string"
        }
      ],
      "name": "generateNFT",
      "outputs": [],
      "stateMutability": "nonpayable",
      "type": "function"
    },
    {
      "inputs": [
        {
          "internalType": "uint256",
          "name": "tokenId",
          "type": "uint256"
        }
      ],
      "name": "getApproved",
      "outputs": [
        {
          "internalType": "address",
          "name": "",
          "type": "address"
        }
      ],
      "stateMutability": "view",
      "type": "function"
    },
    {
      "inputs": [
        {
          "internalType": "address",
          "name": "owner",
          "type": "address"
        },
        {
          "internalType": "address",
          "name": "operator",
          "type": "address"
        }
      ],
      "name": "isApprovedForAll",
      "outputs": [
        {
          "internalType": "bool",
          "name": "",
          "type": "bool"
        }
      ],
      "stateMutability": "view",
      "type": "function"
    },
    {
      "inputs": [],
      "name": "name",
      "outputs": [
        {
          "internalType": "string",
          "name": "",
          "type": "string"
        }
      ],
      "stateMutability": "view",
      "type": "function"
    },
    {
      "inputs": [
        {
          "internalType": "uint256",
          "name": "tokenId",
          "type": "uint256"
        }
      ],
      "name": "ownerOf",
      "outputs": [
        {
          "internalType": "address",
          "name": "",
          "type": "address"
        }
      ],
      "stateMutability": "view",
      "type": "function"
    },
    {
      "inputs": [
        {
          "internalType": "address",
          "name": "from",
          "type": "address"
        },
        {
          "internalType": "address",
          "name": "to",
          "type": "address"
        },
        {
          "internalType": "uint256",
          "name": "tokenId",
          "type": "uint256"
        }
      ],
      "name": "safeTransferFrom",
      "outputs": [],
      "stateMutability": "nonpayable",
      "type": "function"
    },
    {
      "inputs": [
        {
          "internalType": "address",
          "name": "from",
          "type": "address"
        },
        {
          "internalType": "address",
          "name": "to",
          "type": "address"
        },
        {
          "internalType": "uint256",
          "name": "tokenId",
          "type": "uint256"
        },
        {
          "internalType": "bytes",
          "name": "data",
          "type": "bytes"
        }
      ],
      "name": "safeTransferFrom",
      "outputs": [],
      "stateMutability": "nonpayable",
      "type": "function"
    },
    {
      "inputs": [
        {
          "internalType": "address",
          "name": "operator",
          "type": "address"
        },
        {
          "internalType": "bool",
          "name": "approved",
          "type": "bool"
        }
      ],
      "name": "setApprovalForAll",
      "outputs": [],
      "stateMutability": "nonpayable",
      "type": "function"
    },
    {
      "inputs": [
        {
          "internalType": "bytes4",
          "name": "interfaceId",
          "type": "bytes4"
        }
      ],
      "name": "supportsInterface",
      "outputs": [
        {
          "internalType": "bool",
          "name": "",
          "type": "bool"
        }
      ],
      "stateMutability": "view",
      "type": "function"
    },
    {
      "inputs": [],
      "name": "symbol",
      "outputs": [
        {
          "internalType": "string",
          "name": "",
          "type": "string"
        }
      ],
      "stateMutability": "view",
      "type": "function"
    },
    {
      "inputs": [
        {
          "internalType": "uint256",
          "name": "tokenId",
          "type": "uint256"
        }
      ],
      "name": "tokenURI",
      "outputs": [
        {
          "internalType": "string",
          "name": "",
          "type": "string"
        }
      ],
      "stateMutability": "view",
      "type": "function"
    },
    {
      "inputs": [
        {
          "internalType": "address",
          "name": "from",
          "type": "address"
        },
        {
          "internalType": "address",
          "name": "to",
          "type": "address"
        },
        {
          "internalType": "uint256",
          "name": "tokenId",
          "type": "uint256"
        }
      ],
      "name": "transferFrom",
      "outputs": [],
      "stateMutability": "nonpayable",
      "type": "function"
    }
  ],
  "bytecode": "0x60806040523480156200001157600080fd5b506040518060400160405280600d81526020017f4c6f76654c65747465724e4654000000000000000000000000000000000000008152506040518060400160405280600281526020017f4c4c00000000000000000000000000000000000000000000000000000000000081525081600090816200008f91906200043b565b508060019081620000a191906200043b565b505050620000ef6040518060400160405280601881526020017f54686973206973206d79204e465420636f6e74726163742e0000000000000000815250620000f560201b62000b401760201c565b620005d5565b62000195816040516024016200010c9190620005b1565b6040516020818303038152906040527f41304fac000000000000000000000000000000000000000000000000000000007bffffffffffffffffffffffffffffffffffffffffffffffffffffffff19166020820180517bffffffffffffffffffffffffffffffffffffffffffffffffffffffff83818316178352505050506200019860201b60201c565b50565b60008151905060006a636f6e736f6c652e6c6f679050602083016000808483855afa5050505050565b600081519050919050565b7f4e487b7100000000000000000000000000000000000000000000000000000000600052604160045260246000fd5b7f4e487b7100000000000000000000000000000000000000000000000000000000600052602260045260246000fd5b600060028204905060018216806200024357607f821691505b602082108103620002595762000258620001fb565b5b50919050565b60008190508160005260206000209050919050565b60006020601f8301049050919050565b600082821b905092915050565b600060088302620002c37fffffffffffffffffffffffffffffffffffffffffffffffffffffffffffffffff8262000284565b620002cf868362000284565b95508019841693508086168417925050509392505050565b6000819050919050565b6000819050919050565b60006200031c620003166200031084620002e7565b620002f1565b620002e7565b9050919050565b6000819050919050565b6200033883620002fb565b62000350620003478262000323565b84845462000291565b825550505050565b600090565b6200036762000358565b620003748184846200032d565b505050565b5b818110156200039c57620003906000826200035d565b6001810190506200037a565b5050565b601f821115620003eb57620003b5816200025f565b620003c08462000274565b81016020851015620003d0578190505b620003e8620003df8562000274565b83018262000379565b50505b505050565b600082821c905092915050565b60006200041060001984600802620003f0565b1980831691505092915050565b60006200042b8383620003fd565b9150826002028217905092915050565b6200044682620001c1565b67ffffffffffffffff811115620004625762000461620001cc565b5b6200046e82546200022a565b6200047b828285620003a0565b600060209050601f831160018114620004b357600084156200049e578287015190505b620004aa85826200041d565b8655506200051a565b601f198416620004c3866200025f565b60005b82811015620004ed57848901518255600182019150602085019450602081019050620004c6565b868310156200050d578489015162000509601f891682620003fd565b8355505b6001600288020188555050505b505050505050565b600082825260208201905092915050565b60005b838110156200055357808201518184015260208101905062000536565b60008484015250505050565b6000601f19601f8301169050919050565b60006200057d82620001c1565b62000589818562000522565b93506200059b81856020860162000533565b620005a6816200055f565b840191505092915050565b60006020820190508181036000830152620005cd818462000570565b905092915050565b6133f780620005e56000396000f3fe608060405234801561001057600080fd5b50600436106100ea5760003560e01c806370a082311161008c578063b5f69c8e11610066578063b5f69c8e1461025b578063b88d4fde14610277578063c87b56dd14610293578063e985e9c5146102c3576100ea565b806370a08231146101f157806395d89b4114610221578063a22cb4651461023f576100ea565b8063095ea7b3116100c8578063095ea7b31461016d57806323b872dd1461018957806342842e0e146101a55780636352211e146101c1576100ea565b806301ffc9a7146100ef57806306fdde031461011f578063081812fc1461013d575b600080fd5b61010960048036038101906101049190611dec565b6102f3565b6040516101169190611e34565b60405180910390f35b6101276103d5565b6040516101349190611edf565b60405180910390f35b61015760048036038101906101529190611f37565b610467565b6040516101649190611fa5565b60405180910390f35b61018760048036038101906101829190611fec565b6104ad565b005b6101a3600480360381019061019e919061202c565b6105c4565b005b6101bf60048036038101906101ba919061202c565b610624565b005b6101db60048036038101906101d69190611f37565b610644565b6040516101e89190611fa5565b60405180910390f35b61020b6004803603810190610206919061207f565b6106ca565b60405161021891906120bb565b60405180910390f35b610229610781565b6040516102369190611edf565b60405180910390f35b61025960048036038101906102549190612102565b610813565b005b61027560048036038101906102709190612277565b610829565b005b610291600480360381019061028c9190612361565b610938565b005b6102ad60048036038101906102a89190611f37565b61099a565b6040516102ba9190611edf565b60405180910390f35b6102dd60048036038101906102d891906123e4565b610aac565b6040516102ea9190611e34565b60405180910390f35b60007f80ac58cd000000000000000000000000000000000000000000000000000000007bffffffffffffffffffffffffffffffffffffffffffffffffffffffff1916827bffffffffffffffffffffffffffffffffffffffffffffffffffffffff191614806103be57507f5b5e139f000000000000000000000000000000000000000000000000000000007bffffffffffffffffffffffffffffffffffffffffffffffffffffffff1916827bffffffffffffffffffffffffffffffffffffffffffffffffffffffff1916145b806103ce57506103cd82610bd9565b5b9050919050565b6060600080546103e490612453565b80601f016020809104026020016040519081016040528092919081815260200182805461041090612453565b801561045d5780601f106104325761010080835404028352916020019161045d565b820191906000526020600020905b81548152906001019060200180831161044057829003601f168201915b5050505050905090565b600061047282610c43565b6004600083815260200190815260200160002060009054906101000a900473ffffffffffffffffffffffffffffffffffffffff169050919050565b60006104b882610644565b90508073ffffffffffffffffffffffffffffffffffffffff168373ffffffffffffffffffffffffffffffffffffffff1603610528576040517f08c379a000000000000000000000000000000000000000000000000000000000815260040161051f906124f6565b60405180910390fd5b8073ffffffffffffffffffffffffffffffffffffffff16610547610c8e565b73ffffffffffffffffffffffffffffffffffffffff161480610576575061057581610570610c8e565b610aac565b5b6105b5576040517f08c379a00000000000000000000000000000000000000000000000000000000081526004016105ac90612588565b60405180910390fd5b6105bf8383610c96565b505050565b6105d56105cf610c8e565b82610d4f565b610614576040517f08c379a000000000000000000000000000000000000000000000000000000000815260040161060b9061261a565b60405180910390fd5b61061f838383610de4565b505050565b61063f83838360405180602001604052806000815250610938565b505050565b600080610650836110dd565b9050600073ffffffffffffffffffffffffffffffffffffffff168173ffffffffffffffffffffffffffffffffffffffff16036106c1576040517f08c379a00000000000000000000000000000000000000000000000000000000081526004016106b890612686565b60405180910390fd5b80915050919050565b60008073ffffffffffffffffffffffffffffffffffffffff168273ffffffffffffffffffffffffffffffffffffffff160361073a576040517f08c379a000000000000000000000000000000000000000000000000000000000815260040161073190612718565b60405180910390fd5b600360008373ffffffffffffffffffffffffffffffffffffffff1673ffffffffffffffffffffffffffffffffffffffff168152602001908152602001600020549050919050565b60606001805461079090612453565b80601f01602080910402602001604051908101604052809291908181526020018280546107bc90612453565b80156108095780601f106107de57610100808354040283529160200191610809565b820191906000526020600020905b8154815290600101906020018083116107ec57829003601f168201915b5050505050905090565b61082561081e610c8e565b838361111a565b5050565b60006108356007611286565b9050600060405180610100016040528060cc81526020016132f660cc9139905060008390506000828260405160200161086f9291906127c0565b604051602081830303815290604052905060006108b261088e83611294565b60405160200161089e9190612991565b604051602081830303815290604052611294565b90506000816040516020016108c79190612a20565b60405160208183030381529060405290506108e2338761142b565b6108ec8682611449565b6108f660076114b6565b7f4cc0a9c4a99ddc700de1af2c9f916a7cbfdb71f14801ccff94061ad1ef8a80403387604051610927929190612a42565b60405180910390a150505050505050565b610949610943610c8e565b83610d4f565b610988576040517f08c379a000000000000000000000000000000000000000000000000000000000815260040161097f9061261a565b60405180910390fd5b610994848484846114cc565b50505050565b60606109a582610c43565b60006006600084815260200190815260200160002080546109c590612453565b80601f01602080910402602001604051908101604052809291908181526020018280546109f190612453565b8015610a3e5780601f10610a1357610100808354040283529160200191610a3e565b820191906000526020600020905b815481529060010190602001808311610a2157829003601f168201915b505050505090506000610a4f611528565b90506000815103610a64578192505050610aa7565b600082511115610a99578082604051602001610a81929190612a6b565b60405160208183030381529060405292505050610aa7565b610aa28461153f565b925050505b919050565b6000600560008473ffffffffffffffffffffffffffffffffffffffff1673ffffffffffffffffffffffffffffffffffffffff16815260200190815260200160002060008373ffffffffffffffffffffffffffffffffffffffff1673ffffffffffffffffffffffffffffffffffffffff16815260200190815260200160002060009054906101000a900460ff16905092915050565b610bd681604051602401610b549190611edf565b6040516020818303038152906040527f41304fac000000000000000000000000000000000000000000000000000000007bffffffffffffffffffffffffffffffffffffffffffffffffffffffff19166020820180517bffffffffffffffffffffffffffffffffffffffffffffffffffffffff83818316178352505050506115a7565b50565b60007f01ffc9a7000000000000000000000000000000000000000000000000000000007bffffffffffffffffffffffffffffffffffffffffffffffffffffffff1916827bffffffffffffffffffffffffffffffffffffffffffffffffffffffff1916149050919050565b610c4c816115d0565b610c8b576040517f08c379a0000000000000000000000000000000000000000000000000000000008152600401610c8290612686565b60405180910390fd5b50565b600033905090565b816004600083815260200190815260200160002060006101000a81548173ffffffffffffffffffffffffffffffffffffffff021916908373ffffffffffffffffffffffffffffffffffffffff160217905550808273ffffffffffffffffffffffffffffffffffffffff16610d0983610644565b73ffffffffffffffffffffffffffffffffffffffff167f8c5be1e5ebec7d5bd14f71427d1e84f3dd0314c0f7b2291e5b200ac8c7c3b92560405160405180910390a45050565b600080610d5b83610644565b90508073ffffffffffffffffffffffffffffffffffffffff168473ffffffffffffffffffffffffffffffffffffffff161480610d9d5750610d9c8185610aac565b5b80610ddb57508373ffffffffffffffffffffffffffffffffffffffff16610dc384610467565b73ffffffffffffffffffffffffffffffffffffffff16145b91505092915050565b8273ffffffffffffffffffffffffffffffffffffffff16610e0482610644565b73ffffffffffffffffffffffffffffffffffffffff1614610e5a576040517f08c379a0000000000000000000000000000000000000000000000000000000008152600401610e5190612b01565b60405180910390fd5b600073ffffffffffffffffffffffffffffffffffffffff168273ffffffffffffffffffffffffffffffffffffffff1603610ec9576040517f08c379a0000000000000000000000000000000000000000000000000000000008152600401610ec090612b93565b60405180910390fd5b610ed68383836001611611565b8273ffffffffffffffffffffffffffffffffffffffff16610ef682610644565b73ffffffffffffffffffffffffffffffffffffffff1614610f4c576040517f08c379a0000000000000000000000000000000000000000000000000000000008152600401610f4390612b01565b60405180910390fd5b6004600082815260200190815260200160002060006101000a81549073ffffffffffffffffffffffffffffffffffffffff02191690556001600360008573ffffffffffffffffffffffffffffffffffffffff1673ffffffffffffffffffffffffffffffffffffffff168152602001908152602001600020600082825403925050819055506001600360008473ffffffffffffffffffffffffffffffffffffffff1673ffffffffffffffffffffffffffffffffffffffff16815260200190815260200160002060008282540192505081905550816002600083815260200190815260200160002060006101000a81548173ffffffffffffffffffffffffffffffffffffffff021916908373ffffffffffffffffffffffffffffffffffffffff160217905550808273ffffffffffffffffffffffffffffffffffffffff168473ffffffffffffffffffffffffffffffffffffffff167fddf252ad1be2c89b69c2b068fc378daa952ba7f163c4a11628f55a4df523b3ef60405160405180910390a46110d88383836001611737565b505050565b60006002600083815260200190815260200160002060009054906101000a900473ffffffffffffffffffffffffffffffffffffffff169050919050565b8173ffffffffffffffffffffffffffffffffffffffff168373ffffffffffffffffffffffffffffffffffffffff1603611188576040517f08c379a000000000000000000000000000000000000000000000000000000000815260040161117f90612bff565b60405180910390fd5b80600560008573ffffffffffffffffffffffffffffffffffffffff1673ffffffffffffffffffffffffffffffffffffffff16815260200190815260200160002060008473ffffffffffffffffffffffffffffffffffffffff1673ffffffffffffffffffffffffffffffffffffffff16815260200190815260200160002060006101000a81548160ff0219169083151502179055508173ffffffffffffffffffffffffffffffffffffffff168373ffffffffffffffffffffffffffffffffffffffff167f17307eab39ab6107e8899845ad3d59bd9653f200f220920489ca2b5937696c31836040516112799190611e34565b60405180910390a3505050565b600081600001549050919050565b6060600082519050600081036112bc5760405180602001604052806000815250915050611426565b600060036002836112cd9190612c4e565b6112d79190612cb1565b60046112e39190612ce2565b905060006020826112f49190612c4e565b67ffffffffffffffff81111561130d5761130c61214c565b5b6040519080825280601f01601f19166020018201604052801561133f5781602001600182028036833780820191505090505b50905060006040518060600160405280604081526020016132b6604091399050600181016020830160005b868110156113e35760038101905062ffffff818a015116603f8160121c168401518060081b905060ff603f83600c1c1686015116810190508060081b905060ff603f8360061c1686015116810190508060081b905060ff603f831686015116810190508060e01b9050808452600484019350505061136a565b5060038606600181146113fd576002811461140d57611418565b613d3d60f01b6002830352611418565b603d60f81b60018303525b508484525050819450505050505b919050565b61144582826040518060200160405280600081525061173d565b5050565b611452826115d0565b611491576040517f08c379a000000000000000000000000000000000000000000000000000000000815260040161148890612d96565b60405180910390fd5b806006600084815260200190815260200160002090816114b19190612f62565b505050565b6001816000016000828254019250508190555050565b6114d7848484610de4565b6114e384848484611798565b611522576040517f08c379a0000000000000000000000000000000000000000000000000000000008152600401611519906130a6565b60405180910390fd5b50505050565b606060405180602001604052806000815250905090565b606061154a82610c43565b6000611554611528565b90506000815111611574576040518060200160405280600081525061159f565b8061157e8461191f565b60405160200161158f929190612a6b565b6040516020818303038152906040525b915050919050565b60008151905060006a636f6e736f6c652e6c6f679050602083016000808483855afa5050505050565b60008073ffffffffffffffffffffffffffffffffffffffff166115f2836110dd565b73ffffffffffffffffffffffffffffffffffffffff1614159050919050565b600181111561173157600073ffffffffffffffffffffffffffffffffffffffff168473ffffffffffffffffffffffffffffffffffffffff16146116a55780600360008673ffffffffffffffffffffffffffffffffffffffff1673ffffffffffffffffffffffffffffffffffffffff168152602001908152602001600020600082825461169d91906130c6565b925050819055505b600073ffffffffffffffffffffffffffffffffffffffff168373ffffffffffffffffffffffffffffffffffffffff16146117305780600360008573ffffffffffffffffffffffffffffffffffffffff1673ffffffffffffffffffffffffffffffffffffffff16815260200190815260200160002060008282546117289190612c4e565b925050819055505b5b50505050565b50505050565b61174783836119ed565b6117546000848484611798565b611793576040517f08c379a000000000000000000000000000000000000000000000000000000000815260040161178a906130a6565b60405180910390fd5b505050565b60006117b98473ffffffffffffffffffffffffffffffffffffffff16611c0a565b15611912578373ffffffffffffffffffffffffffffffffffffffff1663150b7a026117e2610c8e565b8786866040518563ffffffff1660e01b8152600401611804949392919061314f565b6020604051808303816000875af192505050801561184057506040513d601f19601f8201168201806040525081019061183d91906131b0565b60015b6118c2573d8060008114611870576040519150601f19603f3d011682016040523d82523d6000602084013e611875565b606091505b5060008151036118ba576040517f08c379a00000000000000000000000000000000000000000000000000000000081526004016118b1906130a6565b60405180910390fd5b805181602001fd5b63150b7a0260e01b7bffffffffffffffffffffffffffffffffffffffffffffffffffffffff1916817bffffffffffffffffffffffffffffffffffffffffffffffffffffffff191614915050611917565b600190505b949350505050565b60606000600161192e84611c2d565b01905060008167ffffffffffffffff81111561194d5761194c61214c565b5b6040519080825280601f01601f19166020018201604052801561197f5781602001600182028036833780820191505090505b509050600082602001820190505b6001156119e2578080600190039150507f3031323334353637383961626364656600000000000000000000000000000000600a86061a8153600a85816119d6576119d5612c82565b5b0494506000850361198d575b819350505050919050565b600073ffffffffffffffffffffffffffffffffffffffff168273ffffffffffffffffffffffffffffffffffffffff1603611a5c576040517f08c379a0000000000000000000000000000000000000000000000000000000008152600401611a5390613229565b60405180910390fd5b611a65816115d0565b15611aa5576040517f08c379a0000000000000000000000000000000000000000000000000000000008152600401611a9c90613295565b60405180910390fd5b611ab3600083836001611611565b611abc816115d0565b15611afc576040517f08c379a0000000000000000000000000000000000000000000000000000000008152600401611af390613295565b60405180910390fd5b6001600360008473ffffffffffffffffffffffffffffffffffffffff1673ffffffffffffffffffffffffffffffffffffffff16815260200190815260200160002060008282540192505081905550816002600083815260200190815260200160002060006101000a81548173ffffffffffffffffffffffffffffffffffffffff021916908373ffffffffffffffffffffffffffffffffffffffff160217905550808273ffffffffffffffffffffffffffffffffffffffff16600073ffffffffffffffffffffffffffffffffffffffff167fddf252ad1be2c89b69c2b068fc378daa952ba7f163c4a11628f55a4df523b3ef60405160405180910390a4611c06600083836001611737565b5050565b6000808273ffffffffffffffffffffffffffffffffffffffff163b119050919050565b600080600090507a184f03e93ff9f4daa797ed6e38ed64bf6a1f0100000000000000008310611c8b577a184f03e93ff9f4daa797ed6e38ed64bf6a1f0100000000000000008381611c8157611c80612c82565b5b0492506040810190505b6d04ee2d6d415b85acef81000000008310611cc8576d04ee2d6d415b85acef81000000008381611cbe57611cbd612c82565b5b0492506020810190505b662386f26fc100008310611cf757662386f26fc100008381611ced57611cec612c82565b5b0492506010810190505b6305f5e1008310611d20576305f5e1008381611d1657611d15612c82565b5b0492506008810190505b6127108310611d45576127108381611d3b57611d3a612c82565b5b0492506004810190505b60648310611d685760648381611d5e57611d5d612c82565b5b0492506002810190505b600a8310611d77576001810190505b80915050919050565b6000604051905090565b600080fd5b600080fd5b60007fffffffff0000000000000000000000000000000000000000000000000000000082169050919050565b611dc981611d94565b8114611dd457600080fd5b50565b600081359050611de681611dc0565b92915050565b600060208284031215611e0257611e01611d8a565b5b6000611e1084828501611dd7565b91505092915050565b60008115159050919050565b611e2e81611e19565b82525050565b6000602082019050611e496000830184611e25565b92915050565b600081519050919050565b600082825260208201905092915050565b60005b83811015611e89578082015181840152602081019050611e6e565b60008484015250505050565b6000601f19601f8301169050919050565b6000611eb182611e4f565b611ebb8185611e5a565b9350611ecb818560208601611e6b565b611ed481611e95565b840191505092915050565b60006020820190508181036000830152611ef98184611ea6565b905092915050565b6000819050919050565b611f1481611f01565b8114611f1f57600080fd5b50565b600081359050611f3181611f0b565b92915050565b600060208284031215611f4d57611f4c611d8a565b5b6000611f5b84828501611f22565b91505092915050565b600073ffffffffffffffffffffffffffffffffffffffff82169050919050565b6000611f8f82611f64565b9050919050565b611f9f81611f84565b82525050565b6000602082019050611fba6000830184611f96565b92915050565b611fc981611f84565b8114611fd457600080fd5b50565b600081359050611fe681611fc0565b92915050565b6000806040838503121561200357612002611d8a565b5b600061201185828601611fd7565b925050602061202285828601611f22565b9150509250929050565b60008060006060848603121561204557612044611d8a565b5b600061205386828701611fd7565b935050602061206486828701611fd7565b925050604061207586828701611f22565b9150509250925092565b60006020828403121561209557612094611d8a565b5b60006120a384828501611fd7565b91505092915050565b6120b581611f01565b82525050565b60006020820190506120d060008301846120ac565b92915050565b6120df81611e19565b81146120ea57600080fd5b50565b6000813590506120fc816120d6565b92915050565b6000806040838503121561211957612118611d8a565b5b600061212785828601611fd7565b9250506020612138858286016120ed565b9150509250929050565b600080fd5b600080fd5b7f4e487b7100000000000000000000000000000000000000000000000000000000600052604160045260246000fd5b61218482611e95565b810181811067ffffffffffffffff821117156121a3576121a261214c565b5b80604052505050565b60006121b6611d80565b90506121c2828261217b565b919050565b600067ffffffffffffffff8211156121e2576121e161214c565b5b6121eb82611e95565b9050602081019050919050565b82818337600083830152505050565b600061221a612215846121c7565b6121ac565b90508281526020810184848401111561223657612235612147565b5b6122418482856121f8565b509392505050565b600082601f83011261225e5761225d612142565b5b813561226e848260208601612207565b91505092915050565b60006020828403121561228d5761228c611d8a565b5b600082013567ffffffffffffffff8111156122ab576122aa611d8f565b5b6122b784828501612249565b91505092915050565b600067ffffffffffffffff8211156122db576122da61214c565b5b6122e482611e95565b9050602081019050919050565b60006123046122ff846122c0565b6121ac565b9050828152602081018484840111156123205761231f612147565b5b61232b8482856121f8565b509392505050565b600082601f83011261234857612347612142565b5b81356123588482602086016122f1565b91505092915050565b6000806000806080858703121561237b5761237a611d8a565b5b600061238987828801611fd7565b945050602061239a87828801611fd7565b93505060406123ab87828801611f22565b925050606085013567ffffffffffffffff8111156123cc576123cb611d8f565b5b6123d887828801612333565b91505092959194509250565b600080604083850312156123fb576123fa611d8a565b5b600061240985828601611fd7565b925050602061241a85828601611fd7565b9150509250929050565b7f4e487b7100000000000000000000000000000000000000000000000000000000600052602260045260246000fd5b6000600282049050600182168061246b57607f821691505b60208210810361247e5761247d612424565b5b50919050565b7f4552433732313a20617070726f76616c20746f2063757272656e74206f776e6560008201527f7200000000000000000000000000000000000000000000000000000000000000602082015250565b60006124e0602183611e5a565b91506124eb82612484565b604082019050919050565b6000602082019050818103600083015261250f816124d3565b9050919050565b7f4552433732313a20617070726f76652063616c6c6572206973206e6f7420746f60008201527f6b656e206f776e6572206f7220617070726f76656420666f7220616c6c000000602082015250565b6000612572603d83611e5a565b915061257d82612516565b604082019050919050565b600060208201905081810360008301526125a181612565565b9050919050565b7f4552433732313a2063616c6c6572206973206e6f7420746f6b656e206f776e6560008201527f72206f7220617070726f76656400000000000000000000000000000000000000602082015250565b6000612604602d83611e5a565b915061260f826125a8565b604082019050919050565b60006020820190508181036000830152612633816125f7565b9050919050565b7f4552433732313a20696e76616c696420746f6b656e2049440000000000000000600082015250565b6000612670601883611e5a565b915061267b8261263a565b602082019050919050565b6000602082019050818103600083015261269f81612663565b9050919050565b7f4552433732313a2061646472657373207a65726f206973206e6f74206120766160008201527f6c6964206f776e65720000000000000000000000000000000000000000000000602082015250565b6000612702602983611e5a565b915061270d826126a6565b604082019050919050565b60006020820190508181036000830152612731816126f5565b9050919050565b600081905092915050565b600061274e82611e4f565b6127588185612738565b9350612768818560208601611e6b565b80840191505092915050565b7f3c2f747370616e3e3c2f746578743e3c2f7376673e0000000000000000000000600082015250565b60006127aa601583612738565b91506127b582612774565b601582019050919050565b60006127cc8285612743565b91506127d88284612743565b91506127e38261279d565b91508190509392505050565b7f7b226e616d65223a202200000000000000000000000000000000000000000000600082015250565b6000612825600a83612738565b9150612830826127ef565b600a82019050919050565b7f4c6f7665204c65747465722047656e65726174697665204e4654000000000000600082015250565b6000612871601a83612738565b915061287c8261283b565b601a82019050919050565b7f222c20226465736372697074696f6e223a202241204c6f7665204c657474657260008201527f20436f6c6c656374696f6e207573696e6720436861744750542e222c2022696d60208201527f616765223a2022646174613a696d6167652f7376672b786d6c3b62617365363460408201527f2c00000000000000000000000000000000000000000000000000000000000000606082015250565b600061292f606183612738565b915061293a82612887565b606182019050919050565b7f227d000000000000000000000000000000000000000000000000000000000000600082015250565b600061297b600283612738565b915061298682612945565b600282019050919050565b600061299c82612818565b91506129a782612864565b91506129b282612922565b91506129be8284612743565b91506129c98261296e565b915081905092915050565b7f646174613a6170706c69636174696f6e2f6a736f6e3b6261736536342c000000600082015250565b6000612a0a601d83612738565b9150612a15826129d4565b601d82019050919050565b6000612a2b826129fd565b9150612a378284612743565b915081905092915050565b6000604082019050612a576000830185611f96565b612a6460208301846120ac565b9392505050565b6000612a778285612743565b9150612a838284612743565b91508190509392505050565b7f4552433732313a207472616e736665722066726f6d20696e636f72726563742060008201527f6f776e6572000000000000000000000000000000000000000000000000000000602082015250565b6000612aeb602583611e5a565b9150612af682612a8f565b604082019050919050565b60006020820190508181036000830152612b1a81612ade565b9050919050565b7f4552433732313a207472616e7366657220746f20746865207a65726f2061646460008201527f7265737300000000000000000000000000000000000000000000000000000000602082015250565b6000612b7d602483611e5a565b9150612b8882612b21565b604082019050919050565b60006020820190508181036000830152612bac81612b70565b9050919050565b7f4552433732313a20617070726f766520746f2063616c6c657200000000000000600082015250565b6000612be9601983611e5a565b9150612bf482612bb3565b602082019050919050565b60006020820190508181036000830152612c1881612bdc565b9050919050565b7f4e487b7100000000000000000000000000000000000000000000000000000000600052601160045260246000fd5b6000612c5982611f01565b9150612c6483611f01565b9250828201905080821115612c7c57612c7b612c1f565b5b92915050565b7f4e487b7100000000000000000000000000000000000000000000000000000000600052601260045260246000fd5b6000612cbc82611f01565b9150612cc783611f01565b925082612cd757612cd6612c82565b5b828204905092915050565b6000612ced82611f01565b9150612cf883611f01565b9250828202612d0681611f01565b91508282048414831517612d1d57612d1c612c1f565b5b5092915050565b7f45524337323155524953746f726167653a2055524920736574206f66206e6f6e60008201527f6578697374656e7420746f6b656e000000000000000000000000000000000000602082015250565b6000612d80602e83611e5a565b9150612d8b82612d24565b604082019050919050565b60006020820190508181036000830152612daf81612d73565b9050919050565b60008190508160005260206000209050919050565b60006020601f8301049050919050565b600082821b905092915050565b600060088302612e187fffffffffffffffffffffffffffffffffffffffffffffffffffffffffffffffff82612ddb565b612e228683612ddb565b95508019841693508086168417925050509392505050565b6000819050919050565b6000612e5f612e5a612e5584611f01565b612e3a565b611f01565b9050919050565b6000819050919050565b612e7983612e44565b612e8d612e8582612e66565b848454612de8565b825550505050565b600090565b612ea2612e95565b612ead818484612e70565b505050565b5b81811015612ed157612ec6600082612e9a565b600181019050612eb3565b5050565b601f821115612f1657612ee781612db6565b612ef084612dcb565b81016020851015612eff578190505b612f13612f0b85612dcb565b830182612eb2565b50505b505050565b600082821c905092915050565b6000612f3960001984600802612f1b565b1980831691505092915050565b6000612f528383612f28565b9150826002028217905092915050565b612f6b82611e4f565b67ffffffffffffffff811115612f8457612f8361214c565b5b612f8e8254612453565b612f99828285612ed5565b600060209050601f831160018114612fcc5760008415612fba578287015190505b612fc48582612f46565b86555061302c565b601f198416612fda86612db6565b60005b8281101561300257848901518255600182019150602085019450602081019050612fdd565b8683101561301f578489015161301b601f891682612f28565b8355505b6001600288020188555050505b505050505050565b7f4552433732313a207472616e7366657220746f206e6f6e20455243373231526560008201527f63656976657220696d706c656d656e7465720000000000000000000000000000602082015250565b6000613090603283611e5a565b915061309b82613034565b604082019050919050565b600060208201905081810360008301526130bf81613083565b9050919050565b60006130d182611f01565b91506130dc83611f01565b92508282039050818111156130f4576130f3612c1f565b5b92915050565b600081519050919050565b600082825260208201905092915050565b6000613121826130fa565b61312b8185613105565b935061313b818560208601611e6b565b61314481611e95565b840191505092915050565b60006080820190506131646000830187611f96565b6131716020830186611f96565b61317e60408301856120ac565b81810360608301526131908184613116565b905095945050505050565b6000815190506131aa81611dc0565b92915050565b6000602082840312156131c6576131c5611d8a565b5b60006131d48482850161319b565b91505092915050565b7f4552433732313a206d696e7420746f20746865207a65726f2061646472657373600082015250565b6000613213602083611e5a565b915061321e826131dd565b602082019050919050565b6000602082019050818103600083015261324281613206565b9050919050565b7f4552433732313a20746f6b656e20616c7265616479206d696e74656400000000600082015250565b600061327f601c83611e5a565b915061328a82613249565b602082019050919050565b600060208201905081810360008301526132ae81613272565b905091905056fe4142434445464748494a4b4c4d4e4f505152535455565758595a6162636465666768696a6b6c6d6e6f707172737475767778797a303132333435363738392b2f3c73766720786d6c6e733d27687474703a2f2f7777772e77332e6f72672f323030302f73766727207072657365727665417370656374526174696f3d27784d696e594d696e206d656574272076696577426f783d273020302033353020333530273e3c726563742077696474683d273130302527206865696768743d2731303025272066696c6c3d27776869746527202f3e3c7465787420783d27302720793d27302720666f6e742d73697a653d27377078273e3c747370616e20783d2730272064793d27312e32656d273ea2646970667358221220de12f877e40015c911090bcc87586058d988f7b65b6b3878df17ef935255742064736f6c63430008110033",
  "linkReferences": {},
  "deployedLinkReferences": {}
}