{
    "_format": "hh-sol-artifact-1",
    "contractName": "GenerateNFT",
    "sourceName": "contracts/generate-nft.sol",
    "abi": [
        {
            "inputs": [],
            "stateMutability": "nonpayable",
            "type": "constructor"
        },
        {
            "anonymous": false,
            "inputs": [
                {
                    "indexed": true,
                    "internalType": "address",
                    "name": "owner",
                    "type": "address"
                },
                {
                    "indexed": true,
                    "internalType": "address",
                    "name": "approved",
                    "type": "address"
                },
                {
                    "indexed": true,
                    "internalType": "uint256",
                    "name": "tokenId",
                    "type": "uint256"
                }
            ],
            "name": "Approval",
            "type": "event"
        },
        {
            "anonymous": false,
            "inputs": [
                {
                    "indexed": true,
                    "internalType": "address",
                    "name": "owner",
                    "type": "address"
                },
                {
                    "indexed": true,
                    "internalType": "address",
                    "name": "operator",
                    "type": "address"
                },
                {
                    "indexed": false,
                    "internalType": "bool",
                    "name": "approved",
                    "type": "bool"
                }
            ],
            "name": "ApprovalForAll",
            "type": "event"
        },
        {
            "anonymous": false,
            "inputs": [
                {
                    "indexed": false,
                    "internalType": "address",
                    "name": "sender",
                    "type": "address"
                },
                {
                    "indexed": false,
                    "internalType": "uint256",
                    "name": "tokenId",
                    "type": "uint256"
                }
            ],
            "name": "NFTMinted",
            "type": "event"
        },
        {
            "anonymous": false,
            "inputs": [
                {
                    "indexed": true,
                    "internalType": "address",
                    "name": "from",
                    "type": "address"
                },
                {
                    "indexed": true,
                    "internalType": "address",
                    "name": "to",
                    "type": "address"
                },
                {
                    "indexed": true,
                    "internalType": "uint256",
                    "name": "tokenId",
                    "type": "uint256"
                }
            ],
            "name": "Transfer",
            "type": "event"
        },
        {
            "inputs": [
                {
                    "internalType": "address",
                    "name": "to",
                    "type": "address"
                },
                {
                    "internalType": "uint256",
                    "name": "tokenId",
                    "type": "uint256"
                }
            ],
            "name": "approve",
            "outputs": [],
            "stateMutability": "nonpayable",
            "type": "function"
        },
        {
            "inputs": [
                {
                    "internalType": "address",
                    "name": "owner",
                    "type": "address"
                }
            ],
            "name": "balanceOf",
            "outputs": [
                {
                    "internalType": "uint256",
                    "name": "",
                    "type": "uint256"
                }
            ],
            "stateMutability": "view",
            "type": "function"
        },
        {
            "inputs": [],
            "name": "generateNFT",
            "outputs": [],
            "stateMutability": "nonpayable",
            "type": "function"
        },
        {
            "inputs": [
                {
                    "internalType": "uint256",
                    "name": "tokenId",
                    "type": "uint256"
                }
            ],
            "name": "getApproved",
            "outputs": [
                {
                    "internalType": "address",
                    "name": "",
                    "type": "address"
                }
            ],
            "stateMutability": "view",
            "type": "function"
        },
        {
            "inputs": [
                {
                    "internalType": "address",
                    "name": "owner",
                    "type": "address"
                },
                {
                    "internalType": "address",
                    "name": "operator",
                    "type": "address"
                }
            ],
            "name": "isApprovedForAll",
            "outputs": [
                {
                    "internalType": "bool",
                    "name": "",
                    "type": "bool"
                }
            ],
            "stateMutability": "view",
            "type": "function"
        },
        {
            "inputs": [],
            "name": "name",
            "outputs": [
                {
                    "internalType": "string",
                    "name": "",
                    "type": "string"
                }
            ],
            "stateMutability": "view",
            "type": "function"
        },
        {
            "inputs": [
                {
                    "internalType": "uint256",
                    "name": "tokenId",
                    "type": "uint256"
                }
            ],
            "name": "ownerOf",
            "outputs": [
                {
                    "internalType": "address",
                    "name": "",
                    "type": "address"
                }
            ],
            "stateMutability": "view",
            "type": "function"
        },
        {
            "inputs": [
                {
                    "internalType": "address",
                    "name": "from",
                    "type": "address"
                },
                {
                    "internalType": "address",
                    "name": "to",
                    "type": "address"
                },
                {
                    "internalType": "uint256",
                    "name": "tokenId",
                    "type": "uint256"
                }
            ],
            "name": "safeTransferFrom",
            "outputs": [],
            "stateMutability": "nonpayable",
            "type": "function"
        },
        {
            "inputs": [
                {
                    "internalType": "address",
                    "name": "from",
                    "type": "address"
                },
                {
                    "internalType": "address",
                    "name": "to",
                    "type": "address"
                },
                {
                    "internalType": "uint256",
                    "name": "tokenId",
                    "type": "uint256"
                },
                {
                    "internalType": "bytes",
                    "name": "data",
                    "type": "bytes"
                }
            ],
            "name": "safeTransferFrom",
            "outputs": [],
            "stateMutability": "nonpayable",
            "type": "function"
        },
        {
            "inputs": [
                {
                    "internalType": "address",
                    "name": "operator",
                    "type": "address"
                },
                {
                    "internalType": "bool",
                    "name": "approved",
                    "type": "bool"
                }
            ],
            "name": "setApprovalForAll",
            "outputs": [],
            "stateMutability": "nonpayable",
            "type": "function"
        },
        {
            "inputs": [
                {
                    "internalType": "bytes4",
                    "name": "interfaceId",
                    "type": "bytes4"
                }
            ],
            "name": "supportsInterface",
            "outputs": [
                {
                    "internalType": "bool",
                    "name": "",
                    "type": "bool"
                }
            ],
            "stateMutability": "view",
            "type": "function"
        },
        {
            "inputs": [],
            "name": "symbol",
            "outputs": [
                {
                    "internalType": "string",
                    "name": "",
                    "type": "string"
                }
            ],
            "stateMutability": "view",
            "type": "function"
        },
        {
            "inputs": [
                {
                    "internalType": "uint256",
                    "name": "tokenId",
                    "type": "uint256"
                }
            ],
            "name": "tokenURI",
            "outputs": [
                {
                    "internalType": "string",
                    "name": "",
                    "type": "string"
                }
            ],
            "stateMutability": "view",
            "type": "function"
        },
        {
            "inputs": [
                {
                    "internalType": "address",
                    "name": "from",
                    "type": "address"
                },
                {
                    "internalType": "address",
                    "name": "to",
                    "type": "address"
                },
                {
                    "internalType": "uint256",
                    "name": "tokenId",
                    "type": "uint256"
                }
            ],
            "name": "transferFrom",
            "outputs": [],
            "stateMutability": "nonpayable",
            "type": "function"
        }
    ],
    "bytecode": "0x60806040523480156200001157600080fd5b506040518060400160405280600d81526020017f4c6f76654c65747465724e4654000000000000000000000000000000000000008152506040518060400160405280600281526020017f4c4c00000000000000000000000000000000000000000000000000000000000081525081600090816200008f91906200043b565b508060019081620000a191906200043b565b505050620000ef6040518060400160405280601881526020017f54686973206973206d79204e465420636f6e74726163742e0000000000000000815250620000f560201b62000c911760201c565b620005d5565b62000195816040516024016200010c9190620005b1565b6040516020818303038152906040527f41304fac000000000000000000000000000000000000000000000000000000007bffffffffffffffffffffffffffffffffffffffffffffffffffffffff19166020820180517bffffffffffffffffffffffffffffffffffffffffffffffffffffffff83818316178352505050506200019860201b60201c565b50565b60008151905060006a636f6e736f6c652e6c6f679050602083016000808483855afa5050505050565b600081519050919050565b7f4e487b7100000000000000000000000000000000000000000000000000000000600052604160045260246000fd5b7f4e487b7100000000000000000000000000000000000000000000000000000000600052602260045260246000fd5b600060028204905060018216806200024357607f821691505b602082108103620002595762000258620001fb565b5b50919050565b60008190508160005260206000209050919050565b60006020601f8301049050919050565b600082821b905092915050565b600060088302620002c37fffffffffffffffffffffffffffffffffffffffffffffffffffffffffffffffff8262000284565b620002cf868362000284565b95508019841693508086168417925050509392505050565b6000819050919050565b6000819050919050565b60006200031c620003166200031084620002e7565b620002f1565b620002e7565b9050919050565b6000819050919050565b6200033883620002fb565b62000350620003478262000323565b84845462000291565b825550505050565b600090565b6200036762000358565b620003748184846200032d565b505050565b5b818110156200039c57620003906000826200035d565b6001810190506200037a565b5050565b601f821115620003eb57620003b5816200025f565b620003c08462000274565b81016020851015620003d0578190505b620003e8620003df8562000274565b83018262000379565b50505b505050565b600082821c905092915050565b60006200041060001984600802620003f0565b1980831691505092915050565b60006200042b8383620003fd565b9150826002028217905092915050565b6200044682620001c1565b67ffffffffffffffff811115620004625762000461620001cc565b5b6200046e82546200022a565b6200047b828285620003a0565b600060209050601f831160018114620004b357600084156200049e578287015190505b620004aa85826200041d565b8655506200051a565b601f198416620004c3866200025f565b60005b82811015620004ed57848901518255600182019150602085019450602081019050620004c6565b868310156200050d578489015162000509601f891682620003fd565b8355505b6001600288020188555050505b505050505050565b600082825260208201905092915050565b60005b838110156200055357808201518184015260208101905062000536565b60008484015250505050565b6000601f19601f8301169050919050565b60006200057d82620001c1565b62000589818562000522565b93506200059b81856020860162000533565b620005a6816200055f565b840191505092915050565b60006020820190508181036000830152620005cd818462000570565b905092915050565b6135c380620005e56000396000f3fe608060405234801561001057600080fd5b50600436106100ea5760003560e01c80636352211e1161008c578063a22cb46511610066578063a22cb46514610249578063b88d4fde14610265578063c87b56dd14610281578063e985e9c5146102b1576100ea565b80636352211e146101cb57806370a08231146101fb57806395d89b411461022b576100ea565b8063095ea7b3116100c8578063095ea7b31461016d57806323b872dd1461018957806342842e0e146101a557806362deda7a146101c1576100ea565b806301ffc9a7146100ef57806306fdde031461011f578063081812fc1461013d575b600080fd5b61010960048036038101906101049190611fdc565b6102e1565b6040516101169190612024565b60405180910390f35b6101276103c3565b60405161013491906120cf565b60405180910390f35b61015760048036038101906101529190612127565b610455565b6040516101649190612195565b60405180910390f35b610187600480360381019061018291906121dc565b61049b565b005b6101a3600480360381019061019e919061221c565b6105b2565b005b6101bf60048036038101906101ba919061221c565b610612565b005b6101c9610632565b005b6101e560048036038101906101e09190612127565b6108a4565b6040516101f29190612195565b60405180910390f35b6102156004803603810190610210919061226f565b61092a565b60405161022291906122ab565b60405180910390f35b6102336109e1565b60405161024091906120cf565b60405180910390f35b610263600480360381019061025e91906122f2565b610a73565b005b61027f600480360381019061027a9190612467565b610a89565b005b61029b60048036038101906102969190612127565b610aeb565b6040516102a891906120cf565b60405180910390f35b6102cb60048036038101906102c691906124ea565b610bfd565b6040516102d89190612024565b60405180910390f35b60007f80ac58cd000000000000000000000000000000000000000000000000000000007bffffffffffffffffffffffffffffffffffffffffffffffffffffffff1916827bffffffffffffffffffffffffffffffffffffffffffffffffffffffff191614806103ac57507f5b5e139f000000000000000000000000000000000000000000000000000000007bffffffffffffffffffffffffffffffffffffffffffffffffffffffff1916827bffffffffffffffffffffffffffffffffffffffffffffffffffffffff1916145b806103bc57506103bb82610d2a565b5b9050919050565b6060600080546103d290612559565b80601f01602080910402602001604051908101604052809291908181526020018280546103fe90612559565b801561044b5780601f106104205761010080835404028352916020019161044b565b820191906000526020600020905b81548152906001019060200180831161042e57829003601f168201915b5050505050905090565b600061046082610d94565b6004600083815260200190815260200160002060009054906101000a900473ffffffffffffffffffffffffffffffffffffffff169050919050565b60006104a6826108a4565b90508073ffffffffffffffffffffffffffffffffffffffff168373ffffffffffffffffffffffffffffffffffffffff1603610516576040517f08c379a000000000000000000000000000000000000000000000000000000000815260040161050d906125fc565b60405180910390fd5b8073ffffffffffffffffffffffffffffffffffffffff16610535610ddf565b73ffffffffffffffffffffffffffffffffffffffff16148061056457506105638161055e610ddf565b610bfd565b5b6105a3576040517f08c379a000000000000000000000000000000000000000000000000000000000815260040161059a9061268e565b60405180910390fd5b6105ad8383610de7565b505050565b6105c36105bd610ddf565b82610ea0565b610602576040517f08c379a00000000000000000000000000000000000000000000000000000000081526004016105f990612720565b60405180910390fd5b61060d838383610f35565b505050565b61062d83838360405180602001604052806000815250610a89565b505050565b600061063e600761122e565b9050600060405180610160016040528061012f815260200161341f61012f9139905060006040518060400160405280600c81526020017f6b6f6e6e6e6963686977612100000000000000000000000000000000000000008152509050600082826040516020016106af9291906127c8565b60405160208183030381529060405290506106fe6040518060400160405280601581526020017f0a2d2d2d2d2d2d2d2d2d2d2d2d2d2d2d2d2d2d2d2d0000000000000000000000815250610c91565b61070781610c91565b6107456040518060400160405280601581526020017f2d2d2d2d2d2d2d2d2d2d2d2d2d2d2d2d2d2d2d2d0a0000000000000000000000815250610c91565b60006107776107538361123c565b6040516020016107639190612999565b60405160208183030381529060405261123c565b905060008160405160200161078c9190612a28565b60405160208183030381529060405290506107db6040518060400160405280601581526020017f0a2d2d2d2d2d20546f6b656e20555249202d2d2d2d0000000000000000000000815250610c91565b6107e481610c91565b6108226040518060400160405280601581526020017f2d2d2d2d2d2d2d2d2d2d2d2d2d2d2d2d2d2d2d2d0a0000000000000000000000815250610c91565b61082c33876113d3565b61083686826113f1565b6108596040518060600160405280602581526020016133fa60259139873361145e565b61086360076114fd565b7f4cc0a9c4a99ddc700de1af2c9f916a7cbfdb71f14801ccff94061ad1ef8a80403387604051610894929190612a4a565b60405180910390a1505050505050565b6000806108b083611513565b9050600073ffffffffffffffffffffffffffffffffffffffff168173ffffffffffffffffffffffffffffffffffffffff1603610921576040517f08c379a000000000000000000000000000000000000000000000000000000000815260040161091890612abf565b60405180910390fd5b80915050919050565b60008073ffffffffffffffffffffffffffffffffffffffff168273ffffffffffffffffffffffffffffffffffffffff160361099a576040517f08c379a000000000000000000000000000000000000000000000000000000000815260040161099190612b51565b60405180910390fd5b600360008373ffffffffffffffffffffffffffffffffffffffff1673ffffffffffffffffffffffffffffffffffffffff168152602001908152602001600020549050919050565b6060600180546109f090612559565b80601f0160208091040260200160405190810160405280929190818152602001828054610a1c90612559565b8015610a695780601f10610a3e57610100808354040283529160200191610a69565b820191906000526020600020905b815481529060010190602001808311610a4c57829003601f168201915b5050505050905090565b610a85610a7e610ddf565b8383611550565b5050565b610a9a610a94610ddf565b83610ea0565b610ad9576040517f08c379a0000000000000000000000000000000000000000000000000000000008152600401610ad090612720565b60405180910390fd5b610ae5848484846116bc565b50505050565b6060610af682610d94565b6000600660008481526020019081526020016000208054610b1690612559565b80601f0160208091040260200160405190810160405280929190818152602001828054610b4290612559565b8015610b8f5780601f10610b6457610100808354040283529160200191610b8f565b820191906000526020600020905b815481529060010190602001808311610b7257829003601f168201915b505050505090506000610ba0611718565b90506000815103610bb5578192505050610bf8565b600082511115610bea578082604051602001610bd2929190612b71565b60405160208183030381529060405292505050610bf8565b610bf38461172f565b925050505b919050565b6000600560008473ffffffffffffffffffffffffffffffffffffffff1673ffffffffffffffffffffffffffffffffffffffff16815260200190815260200160002060008373ffffffffffffffffffffffffffffffffffffffff1673ffffffffffffffffffffffffffffffffffffffff16815260200190815260200160002060009054906101000a900460ff16905092915050565b610d2781604051602401610ca591906120cf565b6040516020818303038152906040527f41304fac000000000000000000000000000000000000000000000000000000007bffffffffffffffffffffffffffffffffffffffffffffffffffffffff19166020820180517bffffffffffffffffffffffffffffffffffffffffffffffffffffffff8381831617835250505050611797565b50565b60007f01ffc9a7000000000000000000000000000000000000000000000000000000007bffffffffffffffffffffffffffffffffffffffffffffffffffffffff1916827bffffffffffffffffffffffffffffffffffffffffffffffffffffffff1916149050919050565b610d9d816117c0565b610ddc576040517f08c379a0000000000000000000000000000000000000000000000000000000008152600401610dd390612abf565b60405180910390fd5b50565b600033905090565b816004600083815260200190815260200160002060006101000a81548173ffffffffffffffffffffffffffffffffffffffff021916908373ffffffffffffffffffffffffffffffffffffffff160217905550808273ffffffffffffffffffffffffffffffffffffffff16610e5a836108a4565b73ffffffffffffffffffffffffffffffffffffffff167f8c5be1e5ebec7d5bd14f71427d1e84f3dd0314c0f7b2291e5b200ac8c7c3b92560405160405180910390a45050565b600080610eac836108a4565b90508073ffffffffffffffffffffffffffffffffffffffff168473ffffffffffffffffffffffffffffffffffffffff161480610eee5750610eed8185610bfd565b5b80610f2c57508373ffffffffffffffffffffffffffffffffffffffff16610f1484610455565b73ffffffffffffffffffffffffffffffffffffffff16145b91505092915050565b8273ffffffffffffffffffffffffffffffffffffffff16610f55826108a4565b73ffffffffffffffffffffffffffffffffffffffff1614610fab576040517f08c379a0000000000000000000000000000000000000000000000000000000008152600401610fa290612c07565b60405180910390fd5b600073ffffffffffffffffffffffffffffffffffffffff168273ffffffffffffffffffffffffffffffffffffffff160361101a576040517f08c379a000000000000000000000000000000000000000000000000000000000815260040161101190612c99565b60405180910390fd5b6110278383836001611801565b8273ffffffffffffffffffffffffffffffffffffffff16611047826108a4565b73ffffffffffffffffffffffffffffffffffffffff161461109d576040517f08c379a000000000000000000000000000000000000000000000000000000000815260040161109490612c07565b60405180910390fd5b6004600082815260200190815260200160002060006101000a81549073ffffffffffffffffffffffffffffffffffffffff02191690556001600360008573ffffffffffffffffffffffffffffffffffffffff1673ffffffffffffffffffffffffffffffffffffffff168152602001908152602001600020600082825403925050819055506001600360008473ffffffffffffffffffffffffffffffffffffffff1673ffffffffffffffffffffffffffffffffffffffff16815260200190815260200160002060008282540192505081905550816002600083815260200190815260200160002060006101000a81548173ffffffffffffffffffffffffffffffffffffffff021916908373ffffffffffffffffffffffffffffffffffffffff160217905550808273ffffffffffffffffffffffffffffffffffffffff168473ffffffffffffffffffffffffffffffffffffffff167fddf252ad1be2c89b69c2b068fc378daa952ba7f163c4a11628f55a4df523b3ef60405160405180910390a46112298383836001611927565b505050565b600081600001549050919050565b60606000825190506000810361126457604051806020016040528060008152509150506113ce565b600060036002836112759190612ce8565b61127f9190612d4b565b600461128b9190612d7c565b9050600060208261129c9190612ce8565b67ffffffffffffffff8111156112b5576112b461233c565b5b6040519080825280601f01601f1916602001820160405280156112e75781602001600182028036833780820191505090505b509050600060405180606001604052806040815260200161354e604091399050600181016020830160005b8681101561138b5760038101905062ffffff818a015116603f8160121c168401518060081b905060ff603f83600c1c1686015116810190508060081b905060ff603f8360061c1686015116810190508060081b905060ff603f831686015116810190508060e01b90508084526004840193505050611312565b5060038606600181146113a557600281146113b5576113c0565b613d3d60f01b60028303526113c0565b603d60f81b60018303525b508484525050819450505050505b919050565b6113ed82826040518060200160405280600081525061192d565b5050565b6113fa826117c0565b611439576040517f08c379a000000000000000000000000000000000000000000000000000000000815260040161143090612e30565b60405180910390fd5b806006600084815260200190815260200160002090816114599190612ffc565b505050565b6114f8838383604051602401611476939291906130ce565b6040516020818303038152906040527f1c7ec448000000000000000000000000000000000000000000000000000000007bffffffffffffffffffffffffffffffffffffffffffffffffffffffff19166020820180517bffffffffffffffffffffffffffffffffffffffffffffffffffffffff8381831617835250505050611797565b505050565b6001816000016000828254019250508190555050565b60006002600083815260200190815260200160002060009054906101000a900473ffffffffffffffffffffffffffffffffffffffff169050919050565b8173ffffffffffffffffffffffffffffffffffffffff168373ffffffffffffffffffffffffffffffffffffffff16036115be576040517f08c379a00000000000000000000000000000000000000000000000000000000081526004016115b590613158565b60405180910390fd5b80600560008573ffffffffffffffffffffffffffffffffffffffff1673ffffffffffffffffffffffffffffffffffffffff16815260200190815260200160002060008473ffffffffffffffffffffffffffffffffffffffff1673ffffffffffffffffffffffffffffffffffffffff16815260200190815260200160002060006101000a81548160ff0219169083151502179055508173ffffffffffffffffffffffffffffffffffffffff168373ffffffffffffffffffffffffffffffffffffffff167f17307eab39ab6107e8899845ad3d59bd9653f200f220920489ca2b5937696c31836040516116af9190612024565b60405180910390a3505050565b6116c7848484610f35565b6116d384848484611988565b611712576040517f08c379a0000000000000000000000000000000000000000000000000000000008152600401611709906131ea565b60405180910390fd5b50505050565b606060405180602001604052806000815250905090565b606061173a82610d94565b6000611744611718565b90506000815111611764576040518060200160405280600081525061178f565b8061176e84611b0f565b60405160200161177f929190612b71565b6040516020818303038152906040525b915050919050565b60008151905060006a636f6e736f6c652e6c6f679050602083016000808483855afa5050505050565b60008073ffffffffffffffffffffffffffffffffffffffff166117e283611513565b73ffffffffffffffffffffffffffffffffffffffff1614159050919050565b600181111561192157600073ffffffffffffffffffffffffffffffffffffffff168473ffffffffffffffffffffffffffffffffffffffff16146118955780600360008673ffffffffffffffffffffffffffffffffffffffff1673ffffffffffffffffffffffffffffffffffffffff168152602001908152602001600020600082825461188d919061320a565b925050819055505b600073ffffffffffffffffffffffffffffffffffffffff168373ffffffffffffffffffffffffffffffffffffffff16146119205780600360008573ffffffffffffffffffffffffffffffffffffffff1673ffffffffffffffffffffffffffffffffffffffff16815260200190815260200160002060008282546119189190612ce8565b925050819055505b5b50505050565b50505050565b6119378383611bdd565b6119446000848484611988565b611983576040517f08c379a000000000000000000000000000000000000000000000000000000000815260040161197a906131ea565b60405180910390fd5b505050565b60006119a98473ffffffffffffffffffffffffffffffffffffffff16611dfa565b15611b02578373ffffffffffffffffffffffffffffffffffffffff1663150b7a026119d2610ddf565b8786866040518563ffffffff1660e01b81526004016119f49493929190613293565b6020604051808303816000875af1925050508015611a3057506040513d601f19601f82011682018060405250810190611a2d91906132f4565b60015b611ab2573d8060008114611a60576040519150601f19603f3d011682016040523d82523d6000602084013e611a65565b606091505b506000815103611aaa576040517f08c379a0000000000000000000000000000000000000000000000000000000008152600401611aa1906131ea565b60405180910390fd5b805181602001fd5b63150b7a0260e01b7bffffffffffffffffffffffffffffffffffffffffffffffffffffffff1916817bffffffffffffffffffffffffffffffffffffffffffffffffffffffff191614915050611b07565b600190505b949350505050565b606060006001611b1e84611e1d565b01905060008167ffffffffffffffff811115611b3d57611b3c61233c565b5b6040519080825280601f01601f191660200182016040528015611b6f5781602001600182028036833780820191505090505b509050600082602001820190505b600115611bd2578080600190039150507f3031323334353637383961626364656600000000000000000000000000000000600a86061a8153600a8581611bc657611bc5612d1c565b5b04945060008503611b7d575b819350505050919050565b600073ffffffffffffffffffffffffffffffffffffffff168273ffffffffffffffffffffffffffffffffffffffff1603611c4c576040517f08c379a0000000000000000000000000000000000000000000000000000000008152600401611c439061336d565b60405180910390fd5b611c55816117c0565b15611c95576040517f08c379a0000000000000000000000000000000000000000000000000000000008152600401611c8c906133d9565b60405180910390fd5b611ca3600083836001611801565b611cac816117c0565b15611cec576040517f08c379a0000000000000000000000000000000000000000000000000000000008152600401611ce3906133d9565b60405180910390fd5b6001600360008473ffffffffffffffffffffffffffffffffffffffff1673ffffffffffffffffffffffffffffffffffffffff16815260200190815260200160002060008282540192505081905550816002600083815260200190815260200160002060006101000a81548173ffffffffffffffffffffffffffffffffffffffff021916908373ffffffffffffffffffffffffffffffffffffffff160217905550808273ffffffffffffffffffffffffffffffffffffffff16600073ffffffffffffffffffffffffffffffffffffffff167fddf252ad1be2c89b69c2b068fc378daa952ba7f163c4a11628f55a4df523b3ef60405160405180910390a4611df6600083836001611927565b5050565b6000808273ffffffffffffffffffffffffffffffffffffffff163b119050919050565b600080600090507a184f03e93ff9f4daa797ed6e38ed64bf6a1f0100000000000000008310611e7b577a184f03e93ff9f4daa797ed6e38ed64bf6a1f0100000000000000008381611e7157611e70612d1c565b5b0492506040810190505b6d04ee2d6d415b85acef81000000008310611eb8576d04ee2d6d415b85acef81000000008381611eae57611ead612d1c565b5b0492506020810190505b662386f26fc100008310611ee757662386f26fc100008381611edd57611edc612d1c565b5b0492506010810190505b6305f5e1008310611f10576305f5e1008381611f0657611f05612d1c565b5b0492506008810190505b6127108310611f35576127108381611f2b57611f2a612d1c565b5b0492506004810190505b60648310611f585760648381611f4e57611f4d612d1c565b5b0492506002810190505b600a8310611f67576001810190505b80915050919050565b6000604051905090565b600080fd5b600080fd5b60007fffffffff0000000000000000000000000000000000000000000000000000000082169050919050565b611fb981611f84565b8114611fc457600080fd5b50565b600081359050611fd681611fb0565b92915050565b600060208284031215611ff257611ff1611f7a565b5b600061200084828501611fc7565b91505092915050565b60008115159050919050565b61201e81612009565b82525050565b60006020820190506120396000830184612015565b92915050565b600081519050919050565b600082825260208201905092915050565b60005b8381101561207957808201518184015260208101905061205e565b60008484015250505050565b6000601f19601f8301169050919050565b60006120a18261203f565b6120ab818561204a565b93506120bb81856020860161205b565b6120c481612085565b840191505092915050565b600060208201905081810360008301526120e98184612096565b905092915050565b6000819050919050565b612104816120f1565b811461210f57600080fd5b50565b600081359050612121816120fb565b92915050565b60006020828403121561213d5761213c611f7a565b5b600061214b84828501612112565b91505092915050565b600073ffffffffffffffffffffffffffffffffffffffff82169050919050565b600061217f82612154565b9050919050565b61218f81612174565b82525050565b60006020820190506121aa6000830184612186565b92915050565b6121b981612174565b81146121c457600080fd5b50565b6000813590506121d6816121b0565b92915050565b600080604083850312156121f3576121f2611f7a565b5b6000612201858286016121c7565b925050602061221285828601612112565b9150509250929050565b60008060006060848603121561223557612234611f7a565b5b6000612243868287016121c7565b9350506020612254868287016121c7565b925050604061226586828701612112565b9150509250925092565b60006020828403121561228557612284611f7a565b5b6000612293848285016121c7565b91505092915050565b6122a5816120f1565b82525050565b60006020820190506122c0600083018461229c565b92915050565b6122cf81612009565b81146122da57600080fd5b50565b6000813590506122ec816122c6565b92915050565b6000806040838503121561230957612308611f7a565b5b6000612317858286016121c7565b9250506020612328858286016122dd565b9150509250929050565b600080fd5b600080fd5b7f4e487b7100000000000000000000000000000000000000000000000000000000600052604160045260246000fd5b61237482612085565b810181811067ffffffffffffffff821117156123935761239261233c565b5b80604052505050565b60006123a6611f70565b90506123b2828261236b565b919050565b600067ffffffffffffffff8211156123d2576123d161233c565b5b6123db82612085565b9050602081019050919050565b82818337600083830152505050565b600061240a612405846123b7565b61239c565b90508281526020810184848401111561242657612425612337565b5b6124318482856123e8565b509392505050565b600082601f83011261244e5761244d612332565b5b813561245e8482602086016123f7565b91505092915050565b6000806000806080858703121561248157612480611f7a565b5b600061248f878288016121c7565b94505060206124a0878288016121c7565b93505060406124b187828801612112565b925050606085013567ffffffffffffffff8111156124d2576124d1611f7f565b5b6124de87828801612439565b91505092959194509250565b6000806040838503121561250157612500611f7a565b5b600061250f858286016121c7565b9250506020612520858286016121c7565b9150509250929050565b7f4e487b7100000000000000000000000000000000000000000000000000000000600052602260045260246000fd5b6000600282049050600182168061257157607f821691505b6020821081036125845761258361252a565b5b50919050565b7f4552433732313a20617070726f76616c20746f2063757272656e74206f776e6560008201527f7200000000000000000000000000000000000000000000000000000000000000602082015250565b60006125e660218361204a565b91506125f18261258a565b604082019050919050565b60006020820190508181036000830152612615816125d9565b9050919050565b7f4552433732313a20617070726f76652063616c6c6572206973206e6f7420746f60008201527f6b656e206f776e6572206f7220617070726f76656420666f7220616c6c000000602082015250565b6000612678603d8361204a565b91506126838261261c565b604082019050919050565b600060208201905081810360008301526126a78161266b565b9050919050565b7f4552433732313a2063616c6c6572206973206e6f7420746f6b656e206f776e6560008201527f72206f7220617070726f76656400000000000000000000000000000000000000602082015250565b600061270a602d8361204a565b9150612715826126ae565b604082019050919050565b60006020820190508181036000830152612739816126fd565b9050919050565b600081905092915050565b60006127568261203f565b6127608185612740565b935061277081856020860161205b565b80840191505092915050565b7f3c2f746578743e3c2f7376673e00000000000000000000000000000000000000600082015250565b60006127b2600d83612740565b91506127bd8261277c565b600d82019050919050565b60006127d4828561274b565b91506127e0828461274b565b91506127eb826127a5565b91508190509392505050565b7f7b226e616d65223a202200000000000000000000000000000000000000000000600082015250565b600061282d600a83612740565b9150612838826127f7565b600a82019050919050565b7f4c6f7665204c65747465722047656e65726174697665204e4654000000000000600082015250565b6000612879601a83612740565b915061288482612843565b601a82019050919050565b7f222c20226465736372697074696f6e223a202241204c6f7665204c657474657260008201527f20436f6c6c656374696f6e207573696e6720436861744750542e222c2022696d60208201527f616765223a2022646174613a696d6167652f7376672b786d6c3b62617365363460408201527f2c00000000000000000000000000000000000000000000000000000000000000606082015250565b6000612937606183612740565b91506129428261288f565b606182019050919050565b7f227d000000000000000000000000000000000000000000000000000000000000600082015250565b6000612983600283612740565b915061298e8261294d565b600282019050919050565b60006129a482612820565b91506129af8261286c565b91506129ba8261292a565b91506129c6828461274b565b91506129d182612976565b915081905092915050565b7f646174613a6170706c69636174696f6e2f6a736f6e3b6261736536342c000000600082015250565b6000612a12601d83612740565b9150612a1d826129dc565b601d82019050919050565b6000612a3382612a05565b9150612a3f828461274b565b915081905092915050565b6000604082019050612a5f6000830185612186565b612a6c602083018461229c565b9392505050565b7f4552433732313a20696e76616c696420746f6b656e2049440000000000000000600082015250565b6000612aa960188361204a565b9150612ab482612a73565b602082019050919050565b60006020820190508181036000830152612ad881612a9c565b9050919050565b7f4552433732313a2061646472657373207a65726f206973206e6f74206120766160008201527f6c6964206f776e65720000000000000000000000000000000000000000000000602082015250565b6000612b3b60298361204a565b9150612b4682612adf565b604082019050919050565b60006020820190508181036000830152612b6a81612b2e565b9050919050565b6000612b7d828561274b565b9150612b89828461274b565b91508190509392505050565b7f4552433732313a207472616e736665722066726f6d20696e636f72726563742060008201527f6f776e6572000000000000000000000000000000000000000000000000000000602082015250565b6000612bf160258361204a565b9150612bfc82612b95565b604082019050919050565b60006020820190508181036000830152612c2081612be4565b9050919050565b7f4552433732313a207472616e7366657220746f20746865207a65726f2061646460008201527f7265737300000000000000000000000000000000000000000000000000000000602082015250565b6000612c8360248361204a565b9150612c8e82612c27565b604082019050919050565b60006020820190508181036000830152612cb281612c76565b9050919050565b7f4e487b7100000000000000000000000000000000000000000000000000000000600052601160045260246000fd5b6000612cf3826120f1565b9150612cfe836120f1565b9250828201905080821115612d1657612d15612cb9565b5b92915050565b7f4e487b7100000000000000000000000000000000000000000000000000000000600052601260045260246000fd5b6000612d56826120f1565b9150612d61836120f1565b925082612d7157612d70612d1c565b5b828204905092915050565b6000612d87826120f1565b9150612d92836120f1565b9250828202612da0816120f1565b91508282048414831517612db757612db6612cb9565b5b5092915050565b7f45524337323155524953746f726167653a2055524920736574206f66206e6f6e60008201527f6578697374656e7420746f6b656e000000000000000000000000000000000000602082015250565b6000612e1a602e8361204a565b9150612e2582612dbe565b604082019050919050565b60006020820190508181036000830152612e4981612e0d565b9050919050565b60008190508160005260206000209050919050565b60006020601f8301049050919050565b600082821b905092915050565b600060088302612eb27fffffffffffffffffffffffffffffffffffffffffffffffffffffffffffffffff82612e75565b612ebc8683612e75565b95508019841693508086168417925050509392505050565b6000819050919050565b6000612ef9612ef4612eef846120f1565b612ed4565b6120f1565b9050919050565b6000819050919050565b612f1383612ede565b612f27612f1f82612f00565b848454612e82565b825550505050565b600090565b612f3c612f2f565b612f47818484612f0a565b505050565b5b81811015612f6b57612f60600082612f34565b600181019050612f4d565b5050565b601f821115612fb057612f8181612e50565b612f8a84612e65565b81016020851015612f99578190505b612fad612fa585612e65565b830182612f4c565b50505b505050565b600082821c905092915050565b6000612fd360001984600802612fb5565b1980831691505092915050565b6000612fec8383612fc2565b9150826002028217905092915050565b6130058261203f565b67ffffffffffffffff81111561301e5761301d61233c565b5b6130288254612559565b613033828285612f6f565b600060209050601f8311600181146130665760008415613054578287015190505b61305e8582612fe0565b8655506130c6565b601f19841661307486612e50565b60005b8281101561309c57848901518255600182019150602085019450602081019050613077565b868310156130b957848901516130b5601f891682612fc2565b8355505b6001600288020188555050505b505050505050565b600060608201905081810360008301526130e88186612096565b90506130f7602083018561229c565b6131046040830184612186565b949350505050565b7f4552433732313a20617070726f766520746f2063616c6c657200000000000000600082015250565b600061314260198361204a565b915061314d8261310c565b602082019050919050565b6000602082019050818103600083015261317181613135565b9050919050565b7f4552433732313a207472616e7366657220746f206e6f6e20455243373231526560008201527f63656976657220696d706c656d656e7465720000000000000000000000000000602082015250565b60006131d460328361204a565b91506131df82613178565b604082019050919050565b60006020820190508181036000830152613203816131c7565b9050919050565b6000613215826120f1565b9150613220836120f1565b925082820390508181111561323857613237612cb9565b5b92915050565b600081519050919050565b600082825260208201905092915050565b60006132658261323e565b61326f8185613249565b935061327f81856020860161205b565b61328881612085565b840191505092915050565b60006080820190506132a86000830187612186565b6132b56020830186612186565b6132c2604083018561229c565b81810360608301526132d4818461325a565b905095945050505050565b6000815190506132ee81611fb0565b92915050565b60006020828403121561330a57613309611f7a565b5b6000613318848285016132df565b91505092915050565b7f4552433732313a206d696e7420746f20746865207a65726f2061646472657373600082015250565b600061335760208361204a565b915061336282613321565b602082019050919050565b600060208201905081810360008301526133868161334a565b9050919050565b7f4552433732313a20746f6b656e20616c7265616479206d696e74656400000000600082015250565b60006133c3601c8361204a565b91506133ce8261338d565b602082019050919050565b600060208201905081810360008301526133f2816133b6565b905091905056fe416e204e465420772f20494420257320686173206265656e206d696e74656420746f2025733c73766720786d6c6e733d27687474703a2f2f7777772e77332e6f72672f323030302f73766727207072657365727665417370656374526174696f3d27784d696e594d696e206d656574272076696577426f783d273020302033353020333530273e3c7374796c653e2e62617365207b2066696c6c3a2077686974653b20666f6e742d66616d696c793a2073657269663b20666f6e742d73697a653a20323470783b207d3c2f7374796c653e3c726563742077696474683d273130302527206865696768743d2731303025272066696c6c3d27626c61636b27202f3e3c7465787420783d273530252720793d273530252720636c6173733d27626173652720646f6d696e616e742d626173656c696e653d276d6964646c652720746578742d616e63686f723d276d6964646c65273e4142434445464748494a4b4c4d4e4f505152535455565758595a6162636465666768696a6b6c6d6e6f707172737475767778797a303132333435363738392b2fa2646970667358221220bf76143dcf54a2868f2a17ae50dc201313b3ab7f4458400481f640614e0836c464736f6c63430008110033",
    "linkReferences": {},
    "deployedLinkReferences": {}
}